{
  "contractName": "PredictionMarket",
  "abi": [
    {
      "inputs": [
        {
          "internalType": "address",
          "name": "_oracle",
          "type": "address"
        },
        {
          "internalType": "address payable",
          "name": "_feeTo",
          "type": "address"
        }
      ],
      "stateMutability": "nonpayable",
      "type": "constructor"
    },
    {
      "inputs": [
        {
          "internalType": "enum PredictionMarket.Side",
          "name": "",
          "type": "uint8"
        }
      ],
      "name": "bets",
      "outputs": [
        {
          "internalType": "uint256",
          "name": "",
          "type": "uint256"
        }
      ],
      "stateMutability": "view",
      "type": "function",
      "constant": true
    },
    {
      "inputs": [
        {
          "internalType": "address",
          "name": "",
          "type": "address"
        },
        {
          "internalType": "enum PredictionMarket.Side",
          "name": "",
          "type": "uint8"
        }
      ],
      "name": "betsPerGamblers",
      "outputs": [
        {
          "internalType": "uint256",
          "name": "",
          "type": "uint256"
        }
      ],
      "stateMutability": "view",
      "type": "function",
      "constant": true
    },
    {
      "inputs": [],
      "name": "electionFinished",
      "outputs": [
        {
          "internalType": "bool",
          "name": "",
          "type": "bool"
        }
      ],
      "stateMutability": "view",
      "type": "function",
      "constant": true
    },
    {
      "inputs": [],
      "name": "feeTo",
      "outputs": [
        {
          "internalType": "address payable",
          "name": "",
          "type": "address"
        }
      ],
      "stateMutability": "view",
      "type": "function",
      "constant": true
    },
    {
      "inputs": [],
      "name": "oracle",
      "outputs": [
        {
          "internalType": "address",
          "name": "",
          "type": "address"
        }
      ],
      "stateMutability": "view",
      "type": "function",
      "constant": true
    },
    {
      "inputs": [
        {
          "internalType": "enum PredictionMarket.Side",
          "name": "_side",
          "type": "uint8"
        }
      ],
      "name": "placeBet",
      "outputs": [],
      "stateMutability": "payable",
      "type": "function",
      "payable": true
    },
    {
      "inputs": [],
      "name": "withdrawGain",
      "outputs": [],
      "stateMutability": "nonpayable",
      "type": "function"
    },
    {
      "inputs": [],
      "name": "withdrawFee",
      "outputs": [],
      "stateMutability": "nonpayable",
      "type": "function"
    },
    {
      "inputs": [
        {
          "internalType": "enum PredictionMarket.Side",
          "name": "_winner",
          "type": "uint8"
        },
        {
          "internalType": "enum PredictionMarket.Side",
          "name": "_loser",
          "type": "uint8"
        }
      ],
      "name": "reportResult",
      "outputs": [],
      "stateMutability": "nonpayable",
      "type": "function"
    }
  ],
  "bytecode": "0x608060405234801561001057600080fd5b50604051610bdc380380610bdc8339818101604052604081101561003357600080fd5b81019080805190602001909291908051906020019092919050505081600460006101000a81548173ffffffffffffffffffffffffffffffffffffffff021916908373ffffffffffffffffffffffffffffffffffffffff16021790555080600560006101000a81548173ffffffffffffffffffffffffffffffffffffffff021916908373ffffffffffffffffffffffffffffffffffffffff1602179055505050610afb806100e16000396000f3fe6080604052600436106100865760003560e01c80637dc0d1d0116100595780637dc0d1d01461015f5780637e0ecc00146101a057806380eb4f26146101f2578063beab6e7e14610264578063e941fa781461029157610086565b8063017e7e581461008b5780632b539c86146100cc57806343046844146100e35780634ec942b714610114575b600080fd5b34801561009757600080fd5b506100a06102a8565b604051808273ffffffffffffffffffffffffffffffffffffffff16815260200191505060405180910390f35b3480156100d857600080fd5b506100e16102ce565b005b610112600480360360208110156100f957600080fd5b81019080803560ff1690602001909291905050506105f2565b005b34801561012057600080fd5b5061015d6004803603604081101561013757600080fd5b81019080803560ff169060200190929190803560ff169060200190929190505050610765565b005b34801561016b57600080fd5b50610174610919565b604051808273ffffffffffffffffffffffffffffffffffffffff16815260200191505060405180910390f35b3480156101ac57600080fd5b506101dc600480360360208110156101c357600080fd5b81019080803560ff16906020019092919050505061093f565b6040518082815260200191505060405180910390f35b3480156101fe57600080fd5b5061024e6004803603604081101561021557600080fd5b81019080803573ffffffffffffffffffffffffffffffffffffffff169060200190929190803560ff169060200190929190505050610957565b6040518082815260200191505060405180910390f35b34801561027057600080fd5b5061027961097c565b60405180821515815260200191505060405180910390f35b34801561029d57600080fd5b506102a661098f565b005b600560009054906101000a900473ffffffffffffffffffffffffffffffffffffffff1681565b6000600360003373ffffffffffffffffffffffffffffffffffffffff1673ffffffffffffffffffffffffffffffffffffffff16815260200190815260200160002060008060000160009054906101000a900460ff16600181111561032e57fe5b600181111561033957fe5b8152602001908152602001600020549050600081116103c0576040517f08c379a000000000000000000000000000000000000000000000000000000000815260040180806020018281038252601f8152602001807f796f7520646f206e6f74206861766520616e792077696e6e696e67206265740081525060200191505060405180910390fd5b60011515600160009054906101000a900460ff16151514610449576040517f08c379a00000000000000000000000000000000000000000000000000000000081526004018080602001828103825260188152602001807f656c656374696f6e206973206e6f742066696e6973686564000000000000000081525060200191505060405180910390fd5b6000600260008060000160009054906101000a900460ff16600181111561046c57fe5b600181111561047757fe5b81526020019081526020016000205482600260008060000160019054906101000a900460ff1660018111156104a857fe5b60018111156104b357fe5b81526020019081526020016000205402816104ca57fe5b04820190506000600360003373ffffffffffffffffffffffffffffffffffffffff1673ffffffffffffffffffffffffffffffffffffffff168152602001908152602001600020600080600181111561051e57fe5b600181111561052957fe5b8152602001908152602001600020819055506000600360003373ffffffffffffffffffffffffffffffffffffffff1673ffffffffffffffffffffffffffffffffffffffff168152602001908152602001600020600060018081111561058a57fe5b600181111561059557fe5b8152602001908152602001600020819055503373ffffffffffffffffffffffffffffffffffffffff166108fc829081150290604051600060405180830381858888f193505050501580156105ed573d6000803e3d6000fd5b505050565b60001515600160009054906101000a900460ff1615151461067b576040517f08c379a00000000000000000000000000000000000000000000000000000000081526004018080602001828103825260158152602001807f656c656374696f6e2069732066696e697368696564000000000000000000000081525060200191505060405180910390fd5b6103e86103e334028161068a57fe5b046002600083600181111561069b57fe5b60018111156106a657fe5b8152602001908152602001600020600082825401925050819055506103e86103e33402816106d057fe5b04600360003373ffffffffffffffffffffffffffffffffffffffff1673ffffffffffffffffffffffffffffffffffffffff168152602001908152602001600020600083600181111561071e57fe5b600181111561072957fe5b8152602001908152602001600020600082825401925050819055506103e8600534028161075257fe5b0460066000828254019250508190555050565b3373ffffffffffffffffffffffffffffffffffffffff16600460009054906101000a900473ffffffffffffffffffffffffffffffffffffffff1673ffffffffffffffffffffffffffffffffffffffff1614610828576040517f08c379a00000000000000000000000000000000000000000000000000000000081526004018080602001828103825260168152602001807f6f6e6c79206f7261636c652063616e207265706f72740000000000000000000081525060200191505060405180910390fd5b60001515600160009054906101000a900460ff161515146108b1576040517f08c379a00000000000000000000000000000000000000000000000000000000081526004018080602001828103825260148152602001807f656c656374696f6e2069732066696e697368656400000000000000000000000081525060200191505060405180910390fd5b816000800160006101000a81548160ff021916908360018111156108d157fe5b0217905550806000800160016101000a81548160ff021916908360018111156108f657fe5b021790555060018060006101000a81548160ff0219169083151502179055505050565b600460009054906101000a900473ffffffffffffffffffffffffffffffffffffffff1681565b60026020528060005260406000206000915090505481565b6003602052816000526040600020602052806000526040600020600091509150505481565b600160009054906101000a900460ff1681565b3373ffffffffffffffffffffffffffffffffffffffff16600560009054906101000a900473ffffffffffffffffffffffffffffffffffffffff1673ffffffffffffffffffffffffffffffffffffffff1614610a35576040517f08c379a0000000000000000000000000000000000000000000000000000000008152600401808060200182810382526023815260200180610aa36023913960400191505060405180910390fd5b600560009054906101000a900473ffffffffffffffffffffffffffffffffffffffff1673ffffffffffffffffffffffffffffffffffffffff166108fc6006549081150290604051600060405180830381858888f19350505050158015610a9f573d6000803e3d6000fd5b5056fe6f6e6c7920666565546f20616464726573732063616e20776974686472617720666565a264697066735822122002294e9cd2a7b7c93f5f937a0bfddd584964c1232a4838567cf837eaa6c8a43864736f6c63430007040033",
  "immutableReferences": {},
  "source": "pragma solidity ^0.7.4;\n\ncontract PredictionMarket {\n\n  enum Side {Biden, Trump}\n  struct Result {\n    Side winner;\n    Side loser;\n  }\n  Result result;\n  bool public electionFinished;\n  mapping(Side => uint) public bets;\n  mapping(address => mapping(Side => uint)) public betsPerGamblers;\n  address public oracle;\n  address payable public feeTo;\n  uint private _fee;\n\n  constructor(address _oracle, address payable _feeTo) {\n    oracle = _oracle;\n    feeTo = _feeTo;\n  }\n\n  function placeBet(Side _side) external payable {\n    require(electionFinished == false, 'election is finishied');\n    bets[_side] += msg.value * 995 / 1000;\n    betsPerGamblers[msg.sender][_side] += msg.value * 995 / 1000;\n    _fee += msg.value * 5 / 1000;\n  }\n\n  function withdrawGain() external {\n    uint gamblerBet = betsPerGamblers[msg.sender][result.winner];\n    require(gamblerBet > 0, 'you do not have any winning bet');\n    require(electionFinished == true, 'election is not finished');\n    uint gain = gamblerBet + bets[result.loser] * gamblerBet / bets[result.winner];\n    betsPerGamblers[msg.sender][Side.Biden] = 0;\n    betsPerGamblers[msg.sender][Side.Trump] = 0;\n    msg.sender.transfer(gain);\n  }\n\n  function withdrawFee() external {\n    require(feeTo == msg.sender, 'only feeTo address can withdraw fee');\n    feeTo.transfer(_fee);\n  }\n\n  function reportResult(Side _winner, Side _loser) external {\n    require(oracle == msg.sender, 'only oracle can report');\n    require(electionFinished == false, 'election is finished');\n    result.winner = _winner;\n    result.loser = _loser;\n    electionFinished = true;\n  }\n}",
  "sourcePath": "/Users/maxtang/Code/smartContract/betGamePlayGround/contracts/PredictionMarket.sol",
  "compiler": {
    "name": "solc",
    "version": "0.7.4+commit.3f05b770.Emscripten.clang"
  },
  "schemaVersion": "3.3.1",
  "updatedAt": "2020-11-07T17:36:05.765Z",
  "networkType": "ethereum",
  "devdoc": {
    "kind": "dev",
    "methods": {},
    "version": 1
  },
  "userdoc": {
    "kind": "user",
    "methods": {},
    "version": 1
  }
}